{
  "contractName": "Escrow",
  "abi": [
    {
      "inputs": [
        {
          "internalType": "address",
          "name": "_payer",
          "type": "address"
        },
        {
          "internalType": "address payable",
          "name": "_payee",
          "type": "address"
        },
        {
          "internalType": "uint256",
          "name": "_amount",
          "type": "uint256"
        }
      ],
      "stateMutability": "nonpayable",
      "type": "constructor"
    },
    {
      "inputs": [],
      "name": "amount",
      "outputs": [
        {
          "internalType": "uint256",
          "name": "",
          "type": "uint256"
        }
      ],
      "stateMutability": "view",
      "type": "function",
      "constant": true
    },
    {
      "inputs": [],
      "name": "lawyer",
      "outputs": [
        {
          "internalType": "address",
          "name": "",
          "type": "address"
        }
      ],
      "stateMutability": "view",
      "type": "function",
      "constant": true
    },
    {
      "inputs": [],
      "name": "payee",
      "outputs": [
        {
          "internalType": "address payable",
          "name": "",
          "type": "address"
        }
      ],
      "stateMutability": "view",
      "type": "function",
      "constant": true
    },
    {
      "inputs": [],
      "name": "payer",
      "outputs": [
        {
          "internalType": "address",
          "name": "",
          "type": "address"
        }
      ],
      "stateMutability": "view",
      "type": "function",
      "constant": true
    },
    {
      "inputs": [],
      "name": "deposit",
      "outputs": [],
      "stateMutability": "payable",
      "type": "function",
      "payable": true
    },
    {
      "inputs": [],
      "name": "release",
      "outputs": [],
      "stateMutability": "nonpayable",
      "type": "function"
    },
    {
      "inputs": [],
      "name": "balanceOf",
      "outputs": [
        {
          "internalType": "uint256",
          "name": "",
          "type": "uint256"
        }
      ],
      "stateMutability": "view",
      "type": "function",
      "constant": true
    }
  ],
  "bytecode": "0x608060405234801561001057600080fd5b5060405161091338038061091383398181016040528101906100329190610142565b826000806101000a81548173ffffffffffffffffffffffffffffffffffffffff021916908373ffffffffffffffffffffffffffffffffffffffff16021790555081600160006101000a81548173ffffffffffffffffffffffffffffffffffffffff021916908373ffffffffffffffffffffffffffffffffffffffff16021790555033600260006101000a81548173ffffffffffffffffffffffffffffffffffffffff021916908373ffffffffffffffffffffffffffffffffffffffff16021790555080600381905550505050610224565b600081519050610112816101df565b92915050565b600081519050610127816101f6565b92915050565b60008151905061013c8161020d565b92915050565b60008060006060848603121561015757600080fd5b600061016586828701610103565b935050602061017686828701610118565b92505060406101878682870161012d565b9150509250925092565b600061019c826101b5565b9050919050565b60006101ae826101b5565b9050919050565b600073ffffffffffffffffffffffffffffffffffffffff82169050919050565b6000819050919050565b6101e881610191565b81146101f357600080fd5b50565b6101ff816101a3565b811461020a57600080fd5b50565b610216816101d5565b811461022157600080fd5b50565b6106e0806102336000396000f3fe6080604052600436106100705760003560e01c806386d1a69f1161004e57806386d1a69f146100f6578063aa8c217c1461010d578063ae90b21314610138578063d0e30db01461016357610070565b8063123119cd146100755780633bfb6e31146100a0578063722713f7146100cb575b600080fd5b34801561008157600080fd5b5061008a61016d565b604051610097919061057a565b60405180910390f35b3480156100ac57600080fd5b506100b5610191565b6040516100c2919061057a565b60405180910390f35b3480156100d757600080fd5b506100e06101b7565b6040516100ed9190610630565b60405180910390f35b34801561010257600080fd5b5061010b6101bf565b005b34801561011957600080fd5b50610122610300565b60405161012f9190610630565b60405180910390f35b34801561014457600080fd5b5061014d610306565b60405161015a9190610595565b60405180910390f35b61016b61032c565b005b60008054906101000a900473ffffffffffffffffffffffffffffffffffffffff1681565b600260009054906101000a900473ffffffffffffffffffffffffffffffffffffffff1681565b600047905090565b6003544714610203576040517f08c379a00000000000000000000000000000000000000000000000000000000081526004016101fa906105d0565b60405180910390fd5b600260009054906101000a900473ffffffffffffffffffffffffffffffffffffffff1673ffffffffffffffffffffffffffffffffffffffff163373ffffffffffffffffffffffffffffffffffffffff1614610293576040517f08c379a000000000000000000000000000000000000000000000000000000000815260040161028a906105b0565b60405180910390fd5b600160009054906101000a900473ffffffffffffffffffffffffffffffffffffffff1673ffffffffffffffffffffffffffffffffffffffff166108fc6003549081150290604051600060405180830381858888f193505050501580156102fd573d6000803e3d6000fd5b50565b60035481565b600160009054906101000a900473ffffffffffffffffffffffffffffffffffffffff1681565b60008054906101000a900473ffffffffffffffffffffffffffffffffffffffff1673ffffffffffffffffffffffffffffffffffffffff163373ffffffffffffffffffffffffffffffffffffffff16146103ba576040517f08c379a00000000000000000000000000000000000000000000000000000000081526004016103b190610610565b60405180910390fd5b6003544711156103ff576040517f08c379a00000000000000000000000000000000000000000000000000000000081526004016103f6906105f0565b60405180910390fd5b565b61040a8161066e565b82525050565b6104198161065c565b82525050565b600061042c601d8361064b565b91507f6f6e6c79206c61777965722063616e2072656c656173652066756e64730000006000830152602082019050919050565b600061046c602f8361064b565b91507f63616e6e6f742072656c656173652066756e6473206265666f72652066756c6c60008301527f20616d6f756e742069732073656e7400000000000000000000000000000000006020830152604082019050919050565b60006104d260218361064b565b91507f43616e742073656e64206d6f7265207468616e20657363726f7720616d6f756e60008301527f74000000000000000000000000000000000000000000000000000000000000006020830152604082019050919050565b600061053860188361064b565b91507f53656e646572206d7573742062652074686520706179657200000000000000006000830152602082019050919050565b610574816106a0565b82525050565b600060208201905061058f6000830184610410565b92915050565b60006020820190506105aa6000830184610401565b92915050565b600060208201905081810360008301526105c98161041f565b9050919050565b600060208201905081810360008301526105e98161045f565b9050919050565b60006020820190508181036000830152610609816104c5565b9050919050565b600060208201905081810360008301526106298161052b565b9050919050565b6000602082019050610645600083018461056b565b92915050565b600082825260208201905092915050565b600061066782610680565b9050919050565b600061067982610680565b9050919050565b600073ffffffffffffffffffffffffffffffffffffffff82169050919050565b600081905091905056fea26469706673582212204f34bb08cce544098f6cb4a78705a1d2e17950284185e2db99216bff570d1bbe64736f6c63430008000033",
  "immutableReferences": {},
  "source": "pragma solidity ^0.8.0;\n\ncontract Escrow{\n  address public payer;\n  address payable public payee;\n  address public lawyer;\n  uint public amount;\n  \n  constructor(\n    address _payer, \n    address payable _payee, \n    uint _amount) \n    public {\n    payer = _payer;\n    payee = _payee;\n    lawyer = msg.sender; \n    amount = _amount;\n  }\n\n  function deposit() payable public {\n    require(msg.sender == payer, 'Sender must be the payer');\n    require(address(this).balance <= amount, 'Cant send more than escrow amount');\n  }\n\n  function release() public {\n    require(address(this).balance == amount, 'cannot release funds before full amount is sent');\n    require(msg.sender == lawyer, 'only lawyer can release funds');\n    payee.transfer(amount);\n  }\n  \n  function balanceOf() view public returns(uint) {\n    return address(this).balance;\n  }\n}\n",
  "sourcePath": "C:\\Users\\admin\\Desktop\\Dapp30\\Escrow\\contracts\\Escrow.sol",
  "compiler": {
    "name": "solc",
    "version": "0.8.0+commit.c7dfd78e.Emscripten.clang"
  },
  "schemaVersion": "3.4.11",
  "updatedAt": "2022-11-24T14:54:07.578Z",
  "networkType": "ethereum",
  "devdoc": {
    "kind": "dev",
    "methods": {},
    "version": 1
  },
  "userdoc": {
    "kind": "user",
    "methods": {},
    "version": 1
  }
}